{
  "contractName": "Baccarat",
  "abi": [
    {
      "constant": true,
      "inputs": [
        {
          "name": "",
          "type": "uint256"
        }
      ],
      "name": "records",
      "outputs": [
        {
          "name": "BankerAddress",
          "type": "address"
        },
        {
          "name": "PlayerAddress",
          "type": "address"
        },
        {
          "name": "WinValue",
          "type": "uint256"
        },
        {
          "name": "GameId",
          "type": "uint32"
        },
        {
          "name": "Bank1",
          "type": "uint8"
        },
        {
          "name": "Bank2",
          "type": "uint8"
        },
        {
          "name": "Bank3",
          "type": "uint8"
        },
        {
          "name": "Player1",
          "type": "uint8"
        },
        {
          "name": "Player2",
          "type": "uint8"
        },
        {
          "name": "Player3",
          "type": "uint8"
        },
        {
          "name": "GameResult",
          "type": "uint8"
        },
        {
          "name": "IsOpening",
          "type": "uint8"
        }
      ],
      "payable": false,
      "stateMutability": "view",
      "type": "function"
    },
    {
      "constant": true,
      "inputs": [],
      "name": "createValue",
      "outputs": [
        {
          "name": "",
          "type": "uint256"
        }
      ],
      "payable": false,
      "stateMutability": "view",
      "type": "function"
    },
    {
      "constant": false,
      "inputs": [],
      "name": "renounceOwnership",
      "outputs": [],
      "payable": false,
      "stateMutability": "nonpayable",
      "type": "function"
    },
    {
      "constant": true,
      "inputs": [],
      "name": "owner",
      "outputs": [
        {
          "name": "",
          "type": "address"
        }
      ],
      "payable": false,
      "stateMutability": "view",
      "type": "function"
    },
    {
      "constant": true,
      "inputs": [],
      "name": "baseBet",
      "outputs": [
        {
          "name": "",
          "type": "uint256"
        }
      ],
      "payable": false,
      "stateMutability": "view",
      "type": "function"
    },
    {
      "constant": true,
      "inputs": [],
      "name": "callAddr",
      "outputs": [
        {
          "name": "",
          "type": "address"
        }
      ],
      "payable": false,
      "stateMutability": "view",
      "type": "function"
    },
    {
      "constant": true,
      "inputs": [],
      "name": "gameId",
      "outputs": [
        {
          "name": "",
          "type": "uint32"
        }
      ],
      "payable": false,
      "stateMutability": "view",
      "type": "function"
    },
    {
      "constant": true,
      "inputs": [],
      "name": "fee",
      "outputs": [
        {
          "name": "",
          "type": "uint32"
        }
      ],
      "payable": false,
      "stateMutability": "view",
      "type": "function"
    },
    {
      "constant": false,
      "inputs": [
        {
          "name": "_newOwner",
          "type": "address"
        }
      ],
      "name": "transferOwnership",
      "outputs": [],
      "payable": false,
      "stateMutability": "nonpayable",
      "type": "function"
    },
    {
      "inputs": [],
      "payable": false,
      "stateMutability": "nonpayable",
      "type": "constructor"
    },
    {
      "payable": true,
      "stateMutability": "payable",
      "type": "fallback"
    },
    {
      "anonymous": false,
      "inputs": [
        {
          "indexed": true,
          "name": "previousOwner",
          "type": "address"
        }
      ],
      "name": "OwnershipRenounced",
      "type": "event"
    },
    {
      "anonymous": false,
      "inputs": [
        {
          "indexed": true,
          "name": "previousOwner",
          "type": "address"
        },
        {
          "indexed": true,
          "name": "newOwner",
          "type": "address"
        }
      ],
      "name": "OwnershipTransferred",
      "type": "event"
    },
    {
      "constant": true,
      "inputs": [
        {
          "name": "_gameId",
          "type": "uint32"
        }
      ],
      "name": "getHistory",
      "outputs": [
        {
          "name": "",
          "type": "uint8[]"
        },
        {
          "name": "",
          "type": "uint8[]"
        },
        {
          "name": "",
          "type": "uint8"
        }
      ],
      "payable": false,
      "stateMutability": "view",
      "type": "function"
    },
    {
      "constant": true,
      "inputs": [
        {
          "name": "_gameId",
          "type": "uint256"
        }
      ],
      "name": "IsOpeningRoom",
      "outputs": [
        {
          "name": "",
          "type": "uint8"
        }
      ],
      "payable": false,
      "stateMutability": "view",
      "type": "function"
    },
    {
      "constant": false,
      "inputs": [],
      "name": "createRoom",
      "outputs": [],
      "payable": true,
      "stateMutability": "payable",
      "type": "function"
    },
    {
      "constant": false,
      "inputs": [
        {
          "name": "_gameId",
          "type": "uint8"
        },
        {
          "name": "_result",
          "type": "uint8"
        }
      ],
      "name": "play",
      "outputs": [],
      "payable": true,
      "stateMutability": "payable",
      "type": "function"
    },
    {
      "constant": true,
      "inputs": [],
      "name": "Balance",
      "outputs": [
        {
          "name": "",
          "type": "uint256"
        }
      ],
      "payable": false,
      "stateMutability": "view",
      "type": "function"
    },
    {
      "constant": false,
      "inputs": [
        {
          "name": "_amount",
          "type": "uint256"
        }
      ],
      "name": "withdrawAmount",
      "outputs": [],
      "payable": false,
      "stateMutability": "nonpayable",
      "type": "function"
    },
    {
      "constant": false,
      "inputs": [],
      "name": "kill",
      "outputs": [],
      "payable": false,
      "stateMutability": "nonpayable",
      "type": "function"
    },
    {
      "constant": false,
      "inputs": [
        {
          "name": "_caller",
          "type": "address"
        }
      ],
      "name": "setCalleeContract",
      "outputs": [],
      "payable": false,
      "stateMutability": "nonpayable",
      "type": "function"
    }
  ],
  "bytecode": "0x608060405260038054600163ffffffff199091161767ffffffff000000001916646100000000179055670de0b6b3a764000060045567016345785d8a000060055534801561004c57600080fd5b5060008054600160a060020a031916331790556117fd8061006e6000396000f3006080604052600436106100f05763ffffffff7c01000000000000000000000000000000000000000000000000000000006000350416630562b9f781146100f257806307040e911461010a5780630ef67887146101ce57806334461067146101f55780633be272aa1461028957806341c0e1b5146102915780636dc23c0d146102a6578063715018a6146102bb5780638da5cb5b146102d05780639109f81c14610301578063abf5ccdf14610316578063d55c81711461032b578063d7c81b5514610359578063ddca3f4314610387578063e802c36f1461039c578063ee76ac07146103b0578063f2fde38b146103d1575b005b3480156100fe57600080fd5b506100f06004356103f2565b34801561011657600080fd5b5061012863ffffffff60043516610456565b6040518080602001806020018460ff1660ff168152602001838103835286818151815260200191508051906020019060200280838360005b83811015610178578181015183820152602001610160565b50505050905001838103825285818151815260200191508051906020019060200280838360005b838110156101b757818101518382015260200161019f565b505050509050019550505050505060405180910390f35b3480156101da57600080fd5b506101e3610692565b60408051918252519081900360200190f35b34801561020157600080fd5b5061020d600435610697565b60408051600160a060020a039d8e1681529b909c1660208c01528a8c019990995263ffffffff90971660608a015260ff95861660808a015293851660a089015291841660c0880152831660e087015282166101008601528116610120850152908116610140840152166101608201529051908190036101800190f35b6100f0610749565b34801561029d57600080fd5b506100f0610a17565b3480156102b257600080fd5b506101e3610a78565b3480156102c757600080fd5b506100f0610a7e565b3480156102dc57600080fd5b506102e5610aea565b60408051600160a060020a039092168252519081900360200190f35b34801561030d57600080fd5b506101e3610af9565b34801561032257600080fd5b506102e5610aff565b34801561033757600080fd5b50610343600435610b0e565b6040805160ff9092168252519081900360200190f35b34801561036557600080fd5b5061036e610b35565b6040805163ffffffff9092168252519081900360200190f35b34801561039357600080fd5b5061036e610b41565b6100f060ff60043581169060243516610b55565b3480156103bc57600080fd5b506100f0600160a060020a036004351661162d565b3480156103dd57600080fd5b506100f0600160a060020a0360043516611673565b60008054600160a060020a0316331461040a57600080fd5b5060008054604051670de0b6b3a764000092600160a060020a039092169184840280156108fc02929091818181858888f19350505050158015610451573d6000803e3d6000fd5b505050565b6040805160038082526080820190925260609182916000918391829160208201838038833950506040805160038082526080820190925292945090506020820160608038833950505063ffffffff87166000908152600260205260408120600301548451929350640100000000900460ff169184919081106104d457fe5b60ff928316602091820290920181019190915263ffffffff8816600090815260029091526040902060030154835165010000000000909104909116908390600190811061051d57fe5b60ff928316602091820290920181019190915263ffffffff8816600090815260029182905260409020600301548451660100000000000090910490921691849190811061056657fe5b60ff928316602091820290920181019190915263ffffffff881660009081526002909152604081206003015483516701000000000000009091049092169183919081106105af57fe5b60ff928316602091820290920181019190915263ffffffff881660009081526002909152604090206003015482516801000000000000000090910490911690829060019081106105fb57fe5b60ff928316602091820290920181019190915263ffffffff8816600090815260029182905260409020600301548351690100000000000000000090910490921691839190811061064757fe5b60ff928316602091820290920181019190915263ffffffff88166000908152600290915260409020600301549295509093506a01000000000000000000009091041690509193909250565b303190565b60026020819052600091825260409091208054600182015492820154600390920154600160a060020a0391821693909116919063ffffffff81169060ff6401000000008204811691650100000000008104821691660100000000000082048116916701000000000000008104821691680100000000000000008204811691690100000000000000000081048216916a010000000000000000000082048116916b0100000000000000000000009004168c565b61075233611696565b1561075c57600080fd5b600454341461076a57600080fd5b33151561077657600080fd5b6101806040519081016040528033600160a060020a031681526020016000600160a060020a0316815260200160008152602001600360009054906101000a900463ffffffff1663ffffffff168152602001600060ff168152602001600060ff168152602001600060ff168152602001600060ff168152602001600060ff168152602001600060ff168152602001600060ff168152602001600160ff1681525060026000600360009054906101000a900463ffffffff1663ffffffff16815260200190815260200160002060008201518160000160006101000a815481600160a060020a030219169083600160a060020a0316021790555060208201518160010160006101000a815481600160a060020a030219169083600160a060020a031602179055506040820151816002015560608201518160030160006101000a81548163ffffffff021916908363ffffffff16021790555060808201518160030160046101000a81548160ff021916908360ff16021790555060a08201518160030160056101000a81548160ff021916908360ff16021790555060c08201518160030160066101000a81548160ff021916908360ff16021790555060e08201518160030160076101000a81548160ff021916908360ff1602179055506101008201518160030160086101000a81548160ff021916908360ff1602179055506101208201518160030160096101000a81548160ff021916908360ff16021790555061014082015181600301600a6101000a81548160ff021916908360ff16021790555061016082015181600301600b6101000a81548160ff021916908360ff1602179055509050506003600081819054906101000a900463ffffffff168092919060010191906101000a81548163ffffffff021916908363ffffffff16021790555050565b600054600160a060020a03163314610a2e57600080fd5b60008054604051600160a060020a0390911691303180156108fc02929091818181858888f19350505050158015610a69573d6000803e3d6000fd5b50600054600160a060020a0316ff5b60045481565b600054600160a060020a03163314610a9557600080fd5b60008054604051600160a060020a03909116917ff8df31144d9c2f0f6b59d69b8b98abd5459d07f2742c4df920b25aae33c6482091a26000805473ffffffffffffffffffffffffffffffffffffffff19169055565b600054600160a060020a031681565b60055481565b600154600160a060020a031681565b6000908152600260205260409020600301546b010000000000000000000000900460ff1690565b60035463ffffffff1681565b600354640100000000900463ffffffff1681565b600080808080808080808060ff8c168110610b6f57600080fd5b60018b60ff1610158015610b87575060038b60ff1611155b1515610b9257600080fd5b60ff8c16600090815260026020526040902054600160a060020a03161515610bb957600080fd5b60ff8c81166000908152600260205260409020600301546b010000000000000000000000900416600114610bec57600080fd5b610bf533611696565b15610bff57600080fd5b6005543414610c0d57600080fd5b600160009054906101000a9004600160a060020a0316995089600160a060020a0316635ec01e4d60016040518263ffffffff167c01000000000000000000000000000000000000000000000000000000000281526004016020604051808303818588803b158015610c7d57600080fd5b505af1158015610c91573d6000803e3d6000fd5b50505050506040513d6020811015610ca857600080fd5b5051604080517f5ec01e4d0000000000000000000000000000000000000000000000000000000081529051919a50600160a060020a038c1691635ec01e4d91600191600480830192602092919082900301818588803b158015610d0a57600080fd5b505af1158015610d1e573d6000803e3d6000fd5b50505050506040513d6020811015610d3557600080fd5b5051604080517f5ec01e4d0000000000000000000000000000000000000000000000000000000081529051919950600160a060020a038c1691635ec01e4d91600191600480830192602092919082900301818588803b158015610d9757600080fd5b505af1158015610dab573d6000803e3d6000fd5b50505050506040513d6020811015610dc257600080fd5b5051604080517f5ec01e4d0000000000000000000000000000000000000000000000000000000081529051919850600160a060020a038c1691635ec01e4d91600191600480830192602092919082900301818588803b158015610e2457600080fd5b505af1158015610e38573d6000803e3d6000fd5b50505050506040513d6020811015610e4f57600080fd5b5051955060009450849350610e64898861169e565b9250610e70888761169e565b91508260ff1660081480610e8757508260ff166009145b80610e9557508160ff166008145b80610ea357508160ff166009145b15610ead57611206565b8260ff1660061480610ec257508260ff166007145b8015610ede57508160ff1660061480610ede57508160ff166007145b15610ee857611206565b60008360ff1610158015610f00575060058360ff1611155b15610f995789600160a060020a0316635ec01e4d60016040518263ffffffff167c01000000000000000000000000000000000000000000000000000000000281526004016020604051808303818588803b158015610f5d57600080fd5b505af1158015610f71573d6000803e3d6000fd5b50505050506040513d6020811015610f8857600080fd5b50519450610f96838661169e565b92505b60008260ff1610158015610fb1575060038260ff1611155b1561104e5789600160a060020a0316635ec01e4d60016040518263ffffffff167c01000000000000000000000000000000000000000000000000000000000281526004016020604051808303818588803b15801561100e57600080fd5b505af1158015611022573d6000803e3d6000fd5b50505050506040513d602081101561103957600080fd5b50519350611047828561169e565b9150611206565b8160ff16600414801561106557508460ff16600814155b156110c25789600160a060020a0316635ec01e4d60016040518263ffffffff167c01000000000000000000000000000000000000000000000000000000000281526004016020604051808303818588803b15801561100e57600080fd5b8160ff1660051480156110d9575060028560ff1610155b80156110e9575060078560ff1611155b156111465789600160a060020a0316635ec01e4d60016040518263ffffffff167c01000000000000000000000000000000000000000000000000000000000281526004016020604051808303818588803b15801561100e57600080fd5b8160ff16600614801561115d575060068560ff1610155b801561116d575060078560ff1611155b156112065789600160a060020a0316635ec01e4d60016040518263ffffffff167c01000000000000000000000000000000000000000000000000000000000281526004016020604051808303818588803b1580156111ca57600080fd5b505af11580156111de573d6000803e3d6000fd5b50505050506040513d60208110156111f557600080fd5b50519350611203828561169e565b91505b8260ff168260ff16111561129f5760ff808d16600090815260026020526040902060030180546aff0000000000000000000019166a0100000000000000000000908117918290558d83169104909116141561129a57611282606461127660c36005546116f190919063ffffffff16565b9063ffffffff61172016565b60ff8d16600090815260026020819052604090912001555b61138d565b8260ff168260ff1610156113115760ff8c8116600090815260026020526040902060030180546aff0000000000000000000019166a020000000000000000000017908190556a010000000000000000000090048116908c16141561129a5760055461128290600263ffffffff6116f116565b60ff8c8116600090815260026020526040902060030180546aff0000000000000000000019166a030000000000000000000017908190556a010000000000000000000090048116908c16141561138d5760055461137590600963ffffffff6116f116565b60ff8d16600090815260026020819052604090912001555b60ff8c166000908152600260208190526040822060018101805473ffffffffffffffffffffffffffffffffffffffff191633179055015411156114c9575060ff8b166000908152600260208190526040909120908101549054600554600454600160a060020a03909216916108fc9161141e918591611412919063ffffffff61173516565b9063ffffffff61174216565b6040518115909202916000818181858888f19350505050158015611446573d6000803e3d6000fd5b5061145d606461127683606163ffffffff6116f116565b60ff8d16600090815260026020526040808220600101549051929350600160a060020a03169183156108fc0291849190818181858888f193505050501580156114aa573d6000803e3d6000fd5b5060ff8c16600090815260026020819052604090912001819055611551565b60ff8c16600090815260026020526040902054600354600554600160a060020a03909216916108fc9161152791611518916064916112769163ffffffff6401000000009091048116906116f116565b6004549063ffffffff61173516565b6040518115909202916000818181858888f1935050505015801561154f573d6000803e3d6000fd5b505b50505060ff988916600090815260026020526040902060030180546bff000000000000000000000019938b1669010000000000000000000269ff00000000000000000019968c16680100000000000000000268ff000000000000000019998d166701000000000000000267ff0000000000000019958e1666010000000000000266ff00000000000019988f16650100000000000265ff0000000000199f909b166401000000000264ff0000000019909516949094179d909d16989098179590951617919091169890981794909416929092171617169092555050565b600054600160a060020a0316331461164457600080fd5b6001805473ffffffffffffffffffffffffffffffffffffffff1916600160a060020a0392909216919091179055565b600054600160a060020a0316331461168a57600080fd5b61169381611754565b50565b6000903b1190565b6000600d60ff8481168290069184821606908390600990841611156116c257600092505b60098260ff1611156116d357600091505b50818101600960ff821611156116e857600919015b95945050505050565b60008215156117025750600061171a565b5081810281838281151561171257fe5b041461171a57fe5b92915050565b6000818381151561172d57fe5b049392505050565b8181018281101561171a57fe5b60008282111561174e57fe5b50900390565b600160a060020a038116151561176957600080fd5b60008054604051600160a060020a03808516939216917f8be0079c531659141344cd1fd0a4f28419497f9722a3daafe3b4186f6b6457e091a36000805473ffffffffffffffffffffffffffffffffffffffff1916600160a060020a03929092169190911790555600a165627a7a72305820d7379235a517aa6c28b60637d62f3deeaacaec239599467fa799db00ad11df770029",
  "source": "pragma solidity ^0.4.24;\n\n// 如果是有安裝 truffle framework\nimport \"../node_modules/openzeppelin-solidity/contracts/math/SafeMath.sol\";\nimport \"../node_modules/openzeppelin-solidity/contracts/ownership/Ownable.sol\";\n\n// 用其他方式佈署 \n//import \"github.com/OpenZeppelin/zeppelin-solidity/contracts/math/SafeMath.sol\";\n//import \"github.com/OpenZeppelin/zeppelin-solidity/contracts/ownership/Ownable.sol\";\n\ncontract Baccarat is Ownable {\n    using SafeMath for uint256;\n\n    address public callAddr;\n    mapping (uint256 => GameRecords) public records;\n    uint32 public gameId = 1;\n    uint32 public fee = 97;\n    uint256 public createValue = 1.0 ether; // 開局金額 1.0 ether\n    uint256 public baseBet = 0.1 ether;     // 玩家壓注金額 0.1 ether\n\n    struct GameRecords {\n        address BankerAddress;  // 開局者地址\n        address PlayerAddress;  // 入局者地址\n        uint256 WinValue;       // 輸贏金額\n        uint32  GameId;         // 局號(唯一不重複)\n        uint8   Bank1;          // 莊家: 第1張牌\n        uint8   Bank2;          // 莊家: 第2張牌\n        uint8   Bank3;          // 莊家: 第3張牌\n        uint8   Player1;        // 閒家: 第1張牌\n        uint8   Player2;        // 閒家: 第2張牌\n        uint8   Player3;        // 閒家: 第3張牌\n        uint8   GameResult;     // 勝負結果: 莊or閒or和\n        uint8   IsOpening;      // 牌局是否開啟中\n    }\n\n    function getHistory(uint32 _gameId) public view returns (uint8[],uint8[],uint8) {\n        uint8[] memory bank = new uint8[](3);\n        uint8[] memory player = new uint8[](3);\n        bank[0] = records[_gameId].Bank1;\n        bank[1] = records[_gameId].Bank2;\n        bank[2] = records[_gameId].Bank3;\n        player[0] =  records[_gameId].Player1;\n        player[1] =  records[_gameId].Player2;\n        player[2] =  records[_gameId].Player3;\n\n        return (bank, player, records[_gameId].GameResult);\n    }\n\n    function IsOpeningRoom(uint _gameId) public view returns (uint8) {\n        return (records[_gameId].IsOpening);\n    }\n\n    constructor() public {\n    }\n\n    function createRoom() public payable {\n        require(!isContract(msg.sender));\n        require(msg.value == createValue);\n        require(msg.sender != address(0x0));\n        records[gameId] = GameRecords(msg.sender, address(0x0), 0, gameId, 0,0,0, 0,0,0, 0, 1);\n        gameId++;\n    }\n\n    // 機率合約得到的數字: 1 ~ 52\n    // 各數字代表以下牌\n    // 黑桃:  1 ~ 13\n    // 紅桃: 14 ~ 26\n    // 方塊: 27 ~ 39\n    // 梅花: 40 ~ 52\n    // 10,J,Q,K 代表0\n\n    function play(uint8 _gameId, uint8 _result) public payable {\n        require(_gameId > 0);\n        require(_result >= 1 && _result <= 3);\n        require(records[_gameId].BankerAddress != address(0x0));\n        require(records[_gameId].IsOpening == 1);\n        require(!isContract(msg.sender));\n        require(msg.value == baseBet);\n\n        BaccaratRand c = BaccaratRand(callAddr);\n        uint8 player1 = uint8(c.random.value(1)());\n        uint8 bank1 = uint8(c.random.value(1)());\n        uint8 player2 = uint8(c.random.value(1)());\n        uint8 bank2 = uint8(c.random.value(1)());\n        uint8 player3 = 0;\n        uint8 bank3 = 0;\n\n        // // 計算閒家牌\n        uint8 player = calCard(player1, player2);\n        // // 計算莊家牌\n        uint8 bank = calCard(bank1, bank2);\n\n        // // 不需補牌的狀況\n        if (player == 8 || player == 9 || bank == 8 || bank == 9) {\n            // 莊閒任何一方兩牌合計共的8或9點為例牌(Natural)，對方不須補牌，即定勝負（雙方同持8或9點話為和）\n        }\n        else if ((player == 6 || player == 7) && (bank == 6 || bank == 7)) {\n            // 另外莊閒兩方各持6、7點的話亦為即定勝負（雙方同持6或7點的話為和）\n        }\n        else {\n            // 閒家補牌\n            if (player >= 0 && player <= 5) {\n                player3 = c.random.value(1)();\n                player = calCard(player, player3);\n            }\n\n            // 莊家補牌\n            if (bank >= 0 && bank <= 3) {\n                bank3 = c.random.value(1)();\n                bank = calCard(bank, bank3);\n            }\n            else if (bank == 4 && player3 != 8) {\n                bank3 = c.random.value(1)();\n                bank = calCard(bank, bank3);\n            }\n            else if (bank == 5 && player3 >= 2 && player3 <= 7) {\n                bank3 = c.random.value(1)();\n                bank = calCard(bank, bank3);\n            }\n            else if (bank == 6 && player3 >= 6 && player3 <= 7) {\n                bank3 = c.random.value(1)();\n                bank = calCard(bank, bank3);\n            }\n        }\n\n        if (bank > player) {\n            records[_gameId].GameResult = 1;\n            if (_result == records[_gameId].GameResult) {\n                records[_gameId].WinValue = baseBet.mul(195).div(100);\n            }\n        }\n        else if (bank < player) {\n            records[_gameId].GameResult = 2;\n            if (_result == records[_gameId].GameResult) {\n                records[_gameId].WinValue = baseBet.mul(2);\n            }\n        }\n        else {\n            records[_gameId].GameResult = 3;\n            if (_result == records[_gameId].GameResult) {\n                records[_gameId].WinValue = baseBet.mul(9);\n            }\n        }\n\n        // 派獎\n        records[_gameId].PlayerAddress = msg.sender;\n        if (records[_gameId].WinValue > 0) {\n            uint256 value = records[_gameId].WinValue;\n            address(records[_gameId].BankerAddress).transfer(createValue.add(baseBet).sub(value));\n            value = value.mul(97).div(100);\n            address(records[_gameId].PlayerAddress).transfer(value);\n            records[_gameId].WinValue = value;\n        }\n        else {\n            address(records[_gameId].BankerAddress).transfer(createValue.add(baseBet.mul(fee).div(100)));\n        }\n\n        // // 寫紀錄\n        records[_gameId].Bank1 = bank1;\n        records[_gameId].Bank2 = bank2;\n        records[_gameId].Bank3 = bank3;\n        records[_gameId].Player1 = player1;\n        records[_gameId].Player2 = player2;\n        records[_gameId].Player3 = player3;\n        records[_gameId].IsOpening = 0;\n    }\n\n    function calCard(uint8 _card1, uint8 _card2) internal pure returns(uint8) {\n        uint8 card1 = _card1 % 13;\n        uint8 card2 = _card2 % 13;\n\n        if (card1 > 9)\n            card1 = 0;\n        if (card2 > 9)\n            card2 = 0;\n        uint8 total = card1 + card2;\n        if (total > 9)\n            total = total - 10;\n\n        return total;\n    }\n    \n    function Balance() public view returns(uint256) {\n        return address(this).balance;\n    }\n\n    /* Depoit */\n    function() public payable { }\n    \n    /* Owner */\n    /*\n    function withdrawAll() public onlyOwner {\n        owner.transfer(address(this).balance);\n    }*/\n\n    function withdrawAmount(uint256 _amount) public onlyOwner {\n        uint256 value = 1.0 ether;\n        owner.transfer(_amount * value);\n    }\n    \n    function kill() public onlyOwner {\n        owner.transfer(address(this).balance);\n        selfdestruct(owner);\n    }\n\n    /* Util */\n    function setCalleeContract(address _caller) public onlyOwner {\n        callAddr = _caller;\n    }\n\n    function isContract(address addr) private view returns(bool) {\n        uint size;\n        assembly { size := extcodesize(addr) } // solium-disable-line\n        return size > 0;\n    }\n}\n\ncontract BaccaratRand {\n    function random() public payable returns(uint8);\n}\n",
  "sourcePath": "/home/tung/language/python/baccarat/deployContract/contracts/Baccarat.sol",
  "compiler": {
    "name": "solc",
    "version": "0.4.24+commit.e67f0147.Emscripten.clang"
  },
  "schemaVersion": "2.0.1",
  "updatedAt": "2018-10-03T07:37:36.125Z"
}