{
  "contractName": "BaccaratRand",
  "abi": [
    {
      "constant": false,
      "inputs": [],
      "name": "renounceOwnership",
      "outputs": [],
      "payable": false,
      "stateMutability": "nonpayable",
      "type": "function"
    },
    {
      "constant": true,
      "inputs": [],
      "name": "owner",
      "outputs": [
        {
          "name": "",
          "type": "address"
        }
      ],
      "payable": false,
      "stateMutability": "view",
      "type": "function"
    },
    {
      "constant": false,
      "inputs": [
        {
          "name": "_newOwner",
          "type": "address"
        }
      ],
      "name": "transferOwnership",
      "outputs": [],
      "payable": false,
      "stateMutability": "nonpayable",
      "type": "function"
    },
    {
      "inputs": [],
      "payable": false,
      "stateMutability": "nonpayable",
      "type": "constructor"
    },
    {
      "payable": true,
      "stateMutability": "payable",
      "type": "fallback"
    },
    {
      "anonymous": false,
      "inputs": [
        {
          "indexed": true,
          "name": "previousOwner",
          "type": "address"
        }
      ],
      "name": "OwnershipRenounced",
      "type": "event"
    },
    {
      "anonymous": false,
      "inputs": [
        {
          "indexed": true,
          "name": "previousOwner",
          "type": "address"
        },
        {
          "indexed": true,
          "name": "newOwner",
          "type": "address"
        }
      ],
      "name": "OwnershipTransferred",
      "type": "event"
    },
    {
      "constant": false,
      "inputs": [],
      "name": "random",
      "outputs": [
        {
          "name": "",
          "type": "uint256"
        }
      ],
      "payable": true,
      "stateMutability": "payable",
      "type": "function"
    },
    {
      "constant": false,
      "inputs": [],
      "name": "withdrawAll",
      "outputs": [],
      "payable": false,
      "stateMutability": "nonpayable",
      "type": "function"
    },
    {
      "constant": false,
      "inputs": [
        {
          "name": "_amount",
          "type": "uint256"
        }
      ],
      "name": "withdrawAmount",
      "outputs": [],
      "payable": false,
      "stateMutability": "nonpayable",
      "type": "function"
    },
    {
      "constant": false,
      "inputs": [],
      "name": "kill",
      "outputs": [],
      "payable": false,
      "stateMutability": "nonpayable",
      "type": "function"
    },
    {
      "constant": false,
      "inputs": [
        {
          "name": "_calleeContract",
          "type": "address"
        }
      ],
      "name": "setCalleeContract",
      "outputs": [],
      "payable": false,
      "stateMutability": "nonpayable",
      "type": "function"
    }
  ],
  "bytecode": "0x608060405243600255600060035534801561001957600080fd5b5060008054600160a060020a031916331790556107818061003b6000396000f30060806040526004361061008d5763ffffffff7c01000000000000000000000000000000000000000000000000000000006000350416630562b9f7811461008f57806341c0e1b5146100a75780635ec01e4d146100bc578063715018a6146100d6578063853828b6146100eb5780638da5cb5b14610100578063ee76ac071461013e578063f2fde38b1461016c575b005b34801561009b57600080fd5b5061008d60043561019a565b3480156100b357600080fd5b5061008d610218565b6100c46102a0565b60408051918252519081900360200190f35b3480156100e257600080fd5b5061008d61043a565b3480156100f757600080fd5b5061008d6104c0565b34801561010c57600080fd5b5061011561052f565b6040805173ffffffffffffffffffffffffffffffffffffffff9092168252519081900360200190f35b34801561014a57600080fd5b5061008d73ffffffffffffffffffffffffffffffffffffffff6004351661054b565b34801561017857600080fd5b5061008d73ffffffffffffffffffffffffffffffffffffffff60043516610609565b6000805473ffffffffffffffffffffffffffffffffffffffff1633146101bf57600080fd5b5060008054604051670de0b6b3a76400009273ffffffffffffffffffffffffffffffffffffffff9092169184840280156108fc02929091818181858888f19350505050158015610213573d6000803e3d6000fd5b505050565b60005473ffffffffffffffffffffffffffffffffffffffff16331461023c57600080fd5b6000805460405173ffffffffffffffffffffffffffffffffffffffff90911691303180156108fc02929091818181858888f19350505050158015610284573d6000803e3d6000fd5b5060005473ffffffffffffffffffffffffffffffffffffffff16ff5b60008080808080600134146102b457600080fd5b60015473ffffffffffffffffffffffffffffffffffffffff1633146102d857600080fd5b6102e133610636565b15156102ec57600080fd5b60015460025473ffffffffffffffffffffffffffffffffffffffff90911631955060349450429350610324904363ffffffff61063e16565b60025560035461033a908063ffffffff61063e16565b60035561034d834263ffffffff61063e16565b92506002548361035c87610651565b600354010101604051602001808281526020019150506040516020818303038152906040526040518082805190602001908083835b602083106103b05780518252601f199092019160209182019101610391565b6001836020036101000a038019825116818451168082178552505050505050905001915050604051809103902060019004915060009050610404600185848115156103f757fe5b069063ffffffff61063e16565b604051909150339060009060019082818181858883f19350505050158015610430573d6000803e3d6000fd5b5095945050505050565b60005473ffffffffffffffffffffffffffffffffffffffff16331461045e57600080fd5b6000805460405173ffffffffffffffffffffffffffffffffffffffff909116917ff8df31144d9c2f0f6b59d69b8b98abd5459d07f2742c4df920b25aae33c6482091a26000805473ffffffffffffffffffffffffffffffffffffffff19169055565b60005473ffffffffffffffffffffffffffffffffffffffff1633146104e457600080fd5b6000805460405173ffffffffffffffffffffffffffffffffffffffff90911691303180156108fc02929091818181858888f1935050505015801561052c573d6000803e3d6000fd5b50565b60005473ffffffffffffffffffffffffffffffffffffffff1681565b60005473ffffffffffffffffffffffffffffffffffffffff16331461056f57600080fd5b73ffffffffffffffffffffffffffffffffffffffff811615156105cd57604080517f08c379a0000000000000000000000000000000000000000000000000000000008152602060048201526000602482015290519081900360640190fd5b6001805473ffffffffffffffffffffffffffffffffffffffff191673ffffffffffffffffffffffffffffffffffffffff92909216919091179055565b60005473ffffffffffffffffffffffffffffffffffffffff16331461062d57600080fd5b61052c8161069c565b6000903b1190565b8181018281101561064b57fe5b92915050565b600080825b81151561069557600a81061561067157600a81069150610685565b61068281600a63ffffffff61074016565b90505b811561069057610695565b610656565b9392505050565b73ffffffffffffffffffffffffffffffffffffffff811615156106be57600080fd5b6000805460405173ffffffffffffffffffffffffffffffffffffffff808516939216917f8be0079c531659141344cd1fd0a4f28419497f9722a3daafe3b4186f6b6457e091a36000805473ffffffffffffffffffffffffffffffffffffffff191673ffffffffffffffffffffffffffffffffffffffff92909216919091179055565b6000818381151561074d57fe5b0493925050505600a165627a7a7230582046a160ffe8c9d5f8ccbbf52e9ead1734e30df66ff661588b14d4dd9476f59cdf0029",
  "source": "pragma solidity ^0.4.24;\n\n// 如果是有安裝 truffle framework\nimport \"../node_modules/openzeppelin-solidity/contracts/math/SafeMath.sol\";\nimport \"../node_modules/openzeppelin-solidity/contracts/ownership/Ownable.sol\";\n\n// 用其他方式佈署 \n// import \"github.com/OpenZeppelin/zeppelin-solidity/contracts/math/SafeMath.sol\";\n// import \"github.com/OpenZeppelin/zeppelin-solidity/contracts/ownership/Ownable.sol\";\n\ncontract BaccaratRand is Ownable {\n    using SafeMath for uint256;\n    address calleeContract;\n    uint256 private blocks = block.number;\n    uint256 private gameId = 0;\n\n    constructor() public {\n    }\n\n    function random() public payable returns(uint256) {\n        require(msg.value == 1);\n        require(msg.sender == calleeContract);\n        require(isContract(msg.sender));\n\n        uint256 balance = calleeContract.balance;\n        uint256 modulo = 52;\n        uint256 timestamp = block.timestamp;\n        \n        blocks = blocks.add(block.number);\n        gameId = gameId.add(gameId);\n        timestamp = timestamp.add(block.timestamp);\n        \n        uint256 seed = uint256(keccak256(abi.encodePacked(gameId + removeValueZero(balance) + timestamp + blocks)));\n        uint256 result = 0;\n        result = (seed % modulo).add(1);\n        msg.sender.transfer(1);\n\n        return result;\n    }\n\n    /* Depoit */\n    function() public payable { }\n    \n    /* Owner */\n    function withdrawAll() public onlyOwner {\n        owner.transfer(address(this).balance);\n    }\n\n    function withdrawAmount(uint256 _amount) public onlyOwner {\n        uint256 value = 1.0 ether;\n        owner.transfer(_amount * value);\n    }\n    \n    function kill() public onlyOwner {\n        owner.transfer(address(this).balance);\n        selfdestruct(owner);\n    }\n\n    function setCalleeContract(address _calleeContract) public onlyOwner {\n        require(_calleeContract != address(0), \"\");\n        calleeContract = _calleeContract;\n    }\n\n    /* Util */\n    function isContract(address addr) private view returns(bool) {\n        uint size;\n        assembly { size := extcodesize(addr) } // solium-disable-line\n        return size > 0;\n    }\n    \n    function removeValueZero(uint256 _balance) private pure returns(uint256) {\n        uint256 v = 0;\n        uint256 balance = _balance;\n        \n        while(v == 0) {\n            if (balance % 10 != 0)\n                v = balance % 10;\n            else\n                balance = balance.div(10);\n            \n            if (v != 0)\n                break;\n        }\n        \n        return balance;\n    }\n}",
  "sourcePath": "/home/tung/language/python/baccarat/deployContract/contracts/BaccaratRand.sol",
  "compiler": {
    "name": "solc",
    "version": "0.4.24+commit.e67f0147.Emscripten.clang"
  },
  "schemaVersion": "2.0.1",
  "updatedAt": "2018-10-03T07:37:36.129Z"
}